:100000000C9434000C9446000C9446000C9446006A
:100010000C9446000C9446000C9446000C94460048
:100020000C9446000C9446000C9446000C94460038
:100030000C9446000C9446000C9446000C94460028
:100040000C9446000C9446000C9446000C94460018
:100050000C9446000C9446000C9446000C94460008
:100060000C9446000C94460011241FBECFEFD8E03C
:10007000DEBFCDBF11E0A0E0B1E001C01D92A23013
:10008000B107E1F70E9456000C9482000C94000026
:1000900020E030E040EA5FE005C0FA013197F1F777
:1000A0002F5F3F4F28173907C0F308958CEF8AB9A7
:1000B00083E084B9809100019091010101969093B1
:1000C00001018093000184EF91E00E9448008BB110
:1000D00083708BB94BB12091000130910101C901AE
:1000E000880F991F880F991F482B4BB985B18C7FBA
:1000F00085B985B196E0359527959A95E1F7822BDC
:0801000085B9D8CFF894FFCFB8
:00000001FF
