:100000000C9434000C9446000C9446000C9446006A
:100010000C9446000C9446000C9446000C94460048
:100020000C9446000C9446000C9446000C94460038
:100030000C9446000C9446000C9446000C94460028
:100040000C9446000C9446000C9446000C94460018
:100050000C9446000C9446000C9446000C94460008
:100060000C9446000C94460011241FBECFEFD8E03C
:10007000DEBFCDBF21E0A0E0B1E001C01D92A23003
:10008000B207E1F70E9457000C9486000C94000020
:1000900020E030E02817390709F40895EFE9FFE080
:1000A0003197F1F700C000002F5F3F4FF3CF8CEF87
:1000B0008AB983E084B98091000190910101019691
:1000C000909301018093000188EE93E00E94480024
:1000D0008BB183708BB98BB12091000130910101FC
:1000E000220F331F220F331F822B8BB985B18C7FD8
:1000F00085B985B1209100013091010146E0359527
:1001000027954A95E1F7822B85B9D5CFF894FFCF93
:00000001FF
