:100000000C9434000C943E000C943E000C943E0082
:100010000C943E000C943E000C943E000C943E0068
:100020000C943E000C943E000C943E000C943E0058
:100030000C943E000C943E000C943E000C943E0048
:100040000C943E000C943E000C943E000C943E0038
:100050000C943E000C943E000C943E000C943E0028
:100060000C943E000C943E0011241FBECFEFD8E04C
:10007000DEBFCDBF0E9440000C9471000C940000C4
:100080008CEF8AB983E084B98CE185B974E02CE106
:100090009CEF6EE15CE74CE33CE01A9902C07BB94F
:1000A000FCCF1B9902C03BB9F8CF1C9902C04BB9D9
:1000B000F4CF83B18C7011F42BB9EFCF83B1887179
:1000C00011F49BB9EACF83B1847111F45BB9E5CF28
:1000D00083B18C7119F49BB965B9DFCF1BB825B911
:0600E000DCCFF894FFCF15
:00000001FF
