:100000000C9434000C943E000C943E000C943E0082
:100010000C943E000C943E000C943E000C943E0068
:100020000C943E000C943E000C943E000C943E0058
:100030000C943E000C943E000C943E000C943E0048
:100040000C943E000C943E000C943E000C943E0038
:100050000C943E000C943E000C943E000C943E0028
:100060000C943E000C943E0011241FBECFEFD8E04C
:10007000DEBFCDBF0E946E000C9497000C94000070
:100080009C0140E050E060E874E88EE190E00E945E
:100090007500215030403093C5002093C40082E2A7
:1000A0008093C00088E18093C10086E08093C20005
:1000B00008958091C00087FFFCCF8091C60008950D
:1000C0008091C00085FFFCCF8091C00087FFFCCFEE
:1000D0008091C6008F5F8093C600089580E699E006
:1000E0000E9440000E946000FDCFA1E21A2EAA1BD0
:1000F000BB1BFD010DC0AA1FBB1FEE1FFF1FA217D8
:10010000B307E407F50720F0A21BB30BE40BF50BD4
:10011000661F771F881F991F1A9469F7609570955D
:10012000809590959B01AC01BD01CF010895F89495
:02013000FFCFFF
:00000001FF
