:100000000C9434000C943E000C943E000C943E0082
:100010000C943E000C943E000C943E000C943E0068
:100020000C943E000C943E000C943E000C943E0058
:100030000C943E000C943E000C943E000C943E0048
:100040000C943E000C943E000C943E000C943E0038
:100050000C943E000C943E000C943E000C943E0028
:100060000C943E000C943E0011241FBECFEFD8E04C
:10007000DEBFCDBF0E9498000C9416010C940000C6
:100080009C0140E050E060E874E88EE190E00E945E
:10009000BA00215030403093C5002093C40082E262
:1000A0008093C00088E18093C10086E08093C20005
:1000B00008958091C00087FFFCCF8091C60008950D
:1000C000982F8091C00085FFFCCF9093C6000895C3
:1000D00020E030E040EA5FE005C0FA013197F1F737
:1000E0002F5F3F4F28173907C0F308950F931F93D1
:1000F000DF93CF93CDB7DEB72A970FB6F894DEBF64
:100100000FBECDBF8C01BE016F5F7F4F4AE050E054
:100110000E94DC00C8010E9460002A960FB6F89485
:10012000DEBF0FBECDBFCF91DF911F910F9108951C
:10013000CF93DF9380E699E00E94400014B88FE7E8
:1001400085B9C0E0D0E01A9908C084E690E00E942A
:1001500068001A99F8CF219609C01B99F4CF84E65C
:1001600090E00E9468001B99EECF2197CE010E947B
:100170007600E9CFA1E21A2EAA1BBB1BFD010DC020
:10018000AA1FBB1FEE1FFF1FA217B307E407F50747
:1001900020F0A21BB30BE40BF50B661F771F881F23
:1001A000991F1A9469F760957095809590959B01B9
:1001B000AC01BD01CF010895FB019F01423074F0F5
:1001C000453264F4642F77270E940201805D8A33F0
:1001D0000CF0895D8193CB010097A1F71082C901D2
:1001E0000C94F200DC01FC01672F71917723E1F799
:1001F000329704C07C916D9370836291AE17BF07F4
:10020000C8F30895AA1BBB1B51E107C0AA1FBB1F5F
:10021000A617B70710F0A61BB70B881F991F5A9592
:10022000A9F780959095BC01CD010895F894FFCF72
:00000001FF
