:100000000C9434000C943E000C943E000C943E0082
:100010000C943E000C943E000C943E000C943E0068
:100020000C943E000C943E000C943E000C943E0058
:100030000C943E000C943E000C943E000C943E0048
:100040000C943E000C943E000C943E000C943E0038
:100050000C943E000C943E000C943E000C943E0028
:100060000C943E000C943E0011241FBECFEFD8E04C
:10007000DEBFCDBF0E9480000C94C4000C94000031
:100080009C0140E050E060E874E88EE190E00E945E
:10009000A200215030403093C5002093C40082E27A
:1000A0008093C00088E18093C10086E08093C20005
:1000B00008958091C00087FFFCCF8091C60008950D
:1000C000982F8091C00085FFFCCF9093C6000895C3
:1000D0008B30910514F4805D01C08F5990E00E942F
:1000E0006000089520E030E040EA5FE005C0FA01DA
:1000F0003197F1F72F5F3F4F28173907C0F3089565
:10010000CF93DF9380E699E00E94400014B88FE718
:1001100085B9C0E0D0E01A9908C084E690E00E945A
:1001200072001A99F8CF219609C01B99F4CF84E682
:1001300090E00E9472001B99EECF2197CE010E94A1
:100140006800E9CFA1E21A2EAA1BBB1BFD010DC05E
:10015000AA1FBB1FEE1FFF1FA217B307E407F50777
:1001600020F0A21BB30BE40BF50B661F771F881F53
:10017000991F1A9469F760957095809590959B01E9
:0C018000AC01BD01CF010895F894FFCF41
:00000001FF
