:100000000C9434000C943E000C943E000C943E0082
:100010000C943E000C943E000C943E000C943E0068
:100020000C943E000C943E000C943E000C943E0058
:100030000C943E000C943E000C943E000C943E0048
:100040000C943E000C943E000C943E000C943E0038
:100050000C943E000C943E000C943E000C943E0028
:100060000C943E000C943E0011241FBECFEFD8E04C
:10007000DEBFCDBF0E9440000C946A000C940000CB
:100080008CEF8AB983E084B98CE085B91BB840E075
:1000900050E01A9903C04F5F5F4F04C01B99F9CF1E
:1000A000415050408BB183708BB92BB1CA01880F7E
:1000B000991F880F991F282B2BB985B18C7F85B983
:1000C00025B1CA0136E0959587953A95E1F7282B39
:0800D00025B9DFCFF894FFCF42
:00000001FF
