:100000000C9434000C943E000C943E000C943E0082
:100010000C943E000C943E000C943E000C943E0068
:100020000C943E000C943E000C943E000C943E0058
:100030000C943E000C943E000C943E000C943E0048
:100040000C943E000C943E000C943E000C943E0038
:100050000C943E000C943E000C943E000C943E0028
:100060000C943E000C943E0011241FBECFEFD8E04C
:10007000DEBFCDBF0E948C000C94CC000C9400001D
:1000800090917C00907F90937C0090917C00982BC5
:1000900090937C0080917A00806480937A008091B4
:1000A0007A0086FDFCCF2091780030917900C9015B
:1000B0000895EAE7F0E080E8808390E490937C0084
:1000C00087E08083908308959C0140E050E060E8E1
:1000D00074E88EE190E00E94AA00215030403093F5
:1000E000C5002093C40082E28093C00088E1809321
:1000F000C10086E08093C20008958091C00087FF10
:10010000FCCF8091C6000895982F8091C00085FF94
:10011000FCCF9093C60008951F9380E880937A00E7
:1001200090E490937C0087E080937A0090937A002B
:1001300080E699E00E94640017B88FE788B911E360
:1001400080E00E9440008091C00085FFFCCF1093AA
:10015000C600F6CFA1E21A2EAA1BBB1BFD010DC0E3
:10016000AA1FBB1FEE1FFF1FA217B307E407F50767
:1001700020F0A21BB30BE40BF50B661F771F881F43
:10018000991F1A9469F760957095809590959B01D9
:0C019000AC01BD01CF010895F894FFCF31
:00000001FF
